:1000000000000320D10100001DE60000D9E500003A
:10001000D9E50000D9E50000D9E50000D9E50000E8
:10002000D9E50000D9E50000D9E500001DE6000093
:100030001DE60000D9E500001500010019000100CF
:100040001DE600001DE600001DE600001DE60000A4
:100050001DE600001DE600001DE600001DE6000094
:100060001DE600001DE600001DE600001DE6000084
:100070001DE600001DE600001DE600001DE6000074
:100080001DE600001DE600001DE600001DE6000064
:100090001DE600001DE600001DE600001DE6000054
:1000A00029D6000035D600001DE600001DE6000040
:1000B0001DE600001DE600001DE600001DE6000034
:1000C0001DE600001DE600001DE600001DE6000024
:1000D0001DE600001DE600001DE600001DE6000014
:1000E0001DE600001DE600001DE600001DE6000004
:1000F0001DE600001DE600001DE600001DE60000F4
:100100001DE600001DE600001DE600001DE60000E3
:100110001DE60000D9EB00001DE600001DE6000012
:100120001DE600001DE600001DE600001DE60000C3
:100130001DE600001DE600001DE600001DE60000B3
:100140001DE600001DE600001DE600001DE60000A3
:100150001DE600001DE600001DE600001DE6000093
:100160001DE600001DE6000041D600001DE600006F
:100170001DE600001DE600001DE600001DE6000073
:100180001DE600001DE600001DE600001DE6000063
:100190001DE600001DE600001DE600001DE6000053
:1001A0001DE600001DE600001DE600001DE6000043
:1001B0001DE600001DE600001DE600001DE6000033
:1001C0001DE600001DE600001DE600001DE6000023
:1001D0005F4B4CF2205210B5DA814DF62812DA81CD
:1001E00000BF00BF0EF01EFA5A4B4FF030621A6388
:1001F000594A9A63594ADA634FF0E0234FF4700288
:10020000C3F8882D03F5E823554A1A60554B9A78B0
:10021000110703D59A7842F008029A70524B53485E
:10022000AA221A70524BDA1C121AC11E22F00302C3
:10023000994288BF00224F490EF0FAF84E4B4F48C2
:10024000DA1C121AC11E22F00302994288BF002252
:1002500000211DF011F94A494A484FF4E8720EF0A6
:10026000E7F8494B494A802103F8011B9342FBD12F
:100270004FF0E023434AC3F8082D454B8A221A70F9
:10028000A3F5805324225A70A0221A709A799207FB
:10029000FCD59A79D406FCD43E4A937903F00C033A
:1002A000082BFAD1304B60225A70DA78802AFCD1C0
:1002B000384B01221A715D225A719A799006FCD549
:1002C0009A795106FCD5234A33495164002191643F
:1002D000202119702F498B7903F00C030C2BFAD1D4
:1002E0002E4B53602E4A136913F4807303D153616C
:1002F0004FF4A85313614FF0E0232A4A5A610022B9
:100300009A6107221A61284AC3F8202D62B60EF0BE
:1003100045FA234B5B69DA0705D524480EF032FA1B
:10032000234B244ADA61244B1B785B0609D5204C09
:10033000204BE2699A4204D11C480EF023FA0023B4
:10034000E3610EF075F91DF0D3F90EF069F8FEE7E0
:100350000020054000800440823F04000100002B83
:100360000300008500D0074000E00740400CFF1F5D
:10037000801FFF1F005D02000460FF1F801FFF1F22
:10038000000000000002FF1F00E400E064E400E061
:10039000005006400040064000000602C010070062
:1003A00000D003401FBF020000002020C1D8DD683C
:1003B00000E00340A5C3945A00F00740FFFFFFFF91
:1003C000FFFFFFFFFFFFFFFFFFFFFFFFFFFFFFFF3D
:1003D000FFFFFFFFFFFFFFFFFFFFFFFFFFFFFFFF2D
:1003E000FFFFFFFFFFFFFFFFFFFFFFFFFFFFFFFF1D
:1003F000FFFFFFFFFFFFFFFFFFFFFFFFFFFFFFFF0D
:10040000FFFFFFFFFFFFFFFFFFFFFFFFDEF9FFFF23
:100410000548064B1B1AD90F01EBA301491002D066
:10042000034B03B118477047801FFF1F801FFF1F3A
:100430000000000008B5054B1BB105490548AFF3A6
:100440000080BDE80840FFF7E3BF00BF00000000E8
:10045000801FFF1F285A020000207047002B70B534
:1004600004460E46154603DD02EB42052E441D46AA
:10047000236820469B68984723680B4A5B6966603F
:100480009342656101D1204670BD204698470028FF
:10049000F9D00649064A4B68B2FBF0F0834238BFF8
:1004A00003464B60204670BD59040000981FFF1F93
:1004B00040420F0070B4104A1468631C8C4283B031
:1004C000136016DB0D4C216800910099246801949B
:1004D0000B4C019D26682560891B01294FF47A7C0D
:1004E00038BF01210CFB03F3B3FBF1F30021438080
:1004F000116003B070BC7047B41FFF1F1C5AFF1F70
:10050000B81FFF1F2DE9F04F87B04368374C0091AB
:10051000054633B10EF032FA22686B68801A9842B1
:10052000F7D30EF02BFAEB6820601BB10098A96896
:10053000984700902E4B1C68002C50D00DF1140AE7
:100540000DF1080800260195019B94F812905B8834
:1005500061686269ADF81060632B236898BFA67468
:10056000D3F804B0009B8DF81260CBB104F10B03FB
:1005700004AD04F10E0E13F8017F6FB193F803C0C0
:100580000CF1010007FB0000BCF1000F04D0009F3C
:1005900007FB00F0000C2870734505F10105EAD156
:1005A000049BAAF800301B0C8DF81630059BA8F8A8
:1005B00000301B0C8DF80A30029BADF80C301B0C80
:1005C0008DF80E302046039BD84784F81290A4681B
:1005D0000DF1140A0DF10808002CB5D1019D192167
:1005E000284607B0BDE8F04FFFF764BFA81FFF1F04
:1005F000AC1FFF1F00207047044BFF204FF0FF315E
:10060000002218609960DA60704700BF981FFF1FD2
:100610004069704700207047704700BF036D0BB101
:1006200001207047406D003818BF0120704700BF9F
:10063000704700BFF0B591B0867C02911446054624
:10064000032201A90DF11A000193039404940DF003
:10065000EFFE012E17D000230593ADF818300323C9
:100660008DF81D3004EB440207A90FAC002341F8BC
:10067000043FA1421344FAD12B6802A99B69284682
:10068000984711B0F0BD1A4A1378013303F00703FD
:10069000D9011370C9B29A0748BF41F040015B0706
:1006A00048BF41F020019DF81A20103105ABC9B2B6
:1006B0000DF1170C4FF4807EB2B1BEFBF2F2D2B254
:1006C000501CC0B200FB0116C6F30727361218BF34
:1006D00007F1FF36D8701E7000B1DA7001339C4507
:1006E000BDD09A79002AE8D1DA701A70F6E700BF17
:1006F000BC1FFF1F10B50446806D18B11BF0A8FC8D
:100700000023A365236D2BB104F11800BDE8104050
:100710000BF044BE636D002BF6D110BD10B504463E
:10072000C06818B16169091A0DF0EEFF206818B1B0
:10073000A168091A0DF0E8FF204610BD10B5044667
:10074000006818B1A168091A0DF0DEFF204610BD3F
:100750002DE9F047856904468A46002D61D0DAF814
:100760000830E269002B57DDDAF8003003329B785D
:1007700023B19AF80E0083FA50F3DBB29AF8140012
:1007800000FB03331B1202F8033CDAF800301B783D
:1007900023B19AF80C0083FA50F3DBB29AF81200F6
:1007A00000FB03331B1202F8023CDAF800305B78DE
:1007B00023B19AF80D0083FA50F3DBB29AF81300D4
:1007C000033200FB03331B1202F8043CDAF8080082
:1007D0009AF80C909AF80D809AF80E70DAF80030BA
:1007E0009AF80F509AF810E09AF811C09AF915602B
:1007F0000138A5EB0905AEEB080EACEB070C334452
:1008000000288AF80C508AF80DE08AF80EC0CAF861
:100810000030CAF80800AADCA069BDE8F0470DF076
:1008200043BA4E6806EB460738461BF009FCE06108
:10083000B8001BF005FC206218200DF061FFFF22BC
:100840000275226A4260E269826001220680A0612C
:10085000C560056142800DF07BF980E7214A22499D
:1008600013685268D21AD21001FB02F272B34FF031
:10087000000C197BF9B100B507E0052913D09445A8
:1008800003F118032BD0197B41B1B3F808E086457A
:100890000ED0012902D05989814209D05968032913
:1008A0000CF1010CE9D1D98A0029E8D08842E6D1BF
:1008B00001205DF804FB596803290CF1010C07D0F5
:1008C000052905D0944503F11803D2D100207047C3
:1008D000D98A0029F6D08842F4D10120704700203F
:1008E000E7E700BF6830FF1FABAAAAAA10B504460D
:1008F000806D00B110BD4FF480701BF0A1FBA065AE
:10090000B0B1236D002202703BB101464FF48072FA
:1009100018460BF0B9F9A06D10BD636D002BE9D03E
:1009200001464FF48072184609F0DEF9A06D10BD43
:100930000148A06510BD00BFE81FFF1F38B5056D59
:100940006DB10BB1002038BD114628460AF0DAF926
:100950000028F7D02846BDE838400AF06BBB446D4C
:10096000002CEFD0204608F0C7F90028EAD0204636
:10097000BDE8384008F0E2BF8A79A2F150031B06B7
:1009800020D4F0B54B79046D0D798E784F780978C5
:10099000013385B002F26C72DBB244B103918DE891
:1009A000E000022120460AF0D9FA05B0F0BD406D02
:1009B0000028FAD003918DE8E000022108F00EFF34
:1009C00005B0F0BD0020704710B50446006D80B141
:1009D000037813F0700F00D110BD00210AF092F9D6
:1009E000606D0028F8D0BDE810400022002308F018
:1009F00083B9606D0028EFD090F8313013F0500FBC
:100A0000EAD0BDE810400022002308F075B900BF0D
:100A100010B5036D82B00C462BB30DF1060201A98F
:100A2000184609F085FD38B3BDF80430BDF806203E
:100A300053EA020120D0C2F3451C02F01F00D20A83
:100A4000C3F343114000A2705A0A0139207003F029
:100A50001F0302F5EA62012084F801C0237161716D
:100A6000A27102B010BD406D30B10DF1060201A9B6
:100A700007F0DCFF0028D7D1002002B010BD00BF76
:100A800010B5036D82B00C462BB30DF1060201A91F
:100A9000184609F03DFD38B3BDF80430BDF8062016
:100AA00053EA020120D0C2F3451C02F01F00D20A13
:100AB000C3F343114000A2705A0A0139207003F0B9
:100AC0001F0302F5EA62012084F801C023716171FD
:100AD000A27102B010BD406D30B10DF1060201A946
:100AE00007F092FF0028D7D1002002B010BD00BF50
:100AF0000369D3B110B41C680D48E46884420FD177
:100B0000186D18B15DF8044B0AF0CEBA586D18B1E3
:100B10005DF8044B08F084BF00205DF8044B70477B
:100B2000184623465DF8044B18470020704700BF65
:100B3000050E0000006990B10368154A1B699342D5
:100B400025D1036D63B1187810F0080007D0D8697B
:100B50005B69C01A48BF6FF0004070471846704785
:100B6000436D002BFAD093F8310010F00800F6D056
:100B7000186919685A695B68401A62EB0303B0F19F
:100B8000004F73F10003EAD36FF00040704718473D
:100B90009D0F0000036963B11A68074992698A4290
:100BA00008D1186D08B10AF0D3B9586D08B108F032
:100BB000CDBC704718461047710D0000036973B132
:100BC0001A68084952698A4207D1186D08B109F0BC
:100BD0005DBF586D18B108F077B8184610474FF050
:100BE000FF307047E10C0000036D13B1586900211C
:100BF0007047436D13B1D3E9000170471846194699
:100C0000704700BF036D13B1D86900217047436D71
:100C100013B1D3E90401704718461946704700BF65
:100C2000F0B595B00022234F01924FF47A74183139
:100C3000054604A8CDE9122202948DF80C200097F5
:100C40000BF018FC129B002B29D05C200DF058FDF6
:100C5000019BC360029B03619DF80C300375164B2A
:100C600003600026154B83600446466004A91830D3
:100C70000BF066FB4FF47A73AB606368104AA760B1
:100C80000133A6656E602A602E732C6163600D4B84
:100C9000009304A80BF082FB284615B0F0BD139B0F
:100CA000002BD2D1064A6B60AC602B732A602B619B
:100CB000EDE700BF9C320200EC3202005432020029
:100CC000C032020078320200836C13B1184609F07A
:100CD000DDBEC06C08B107F0F7BF4FF0FF307047C2
:100CE000036D13B1184609F0D1BE406D08B107F08D
:100CF000EBBF4FF0FF307047036D33B11B7813F03B
:100D0000700F14BF012000207047406D30B190F883
:100D1000313013F0500F14BF01200020704700BF86
:100D2000036D13B1184609F0DBBD406D08B107F043
:100D3000F7BE4FF0FF30704700B5836C83B063B1EE
:100D400001220DF10701184609F0CAFD01280CD156
:100D50009DF8070003B05DF804FBC06C28B10122C8
:100D60000DF1070107F0DCFEF0E74FF0FF30F1E78F
:100D7000036D13B118460AF0EBB8406D08B108F0E6
:100D8000E5BB7047836C13B118460AF0E1B8C06C3C
:100D900008B108F0DBBB7047036923B310B51968CD
:100DA000124A8C68944282B014D1186D48B1012265
:100DB0000DF1070109F094FD90B19DF8070002B014
:100DC00010BD586D0028F8D001220DF1070107F081
:100DD000A7FEF1E701220DF107011846A047EBE756
:100DE0004FF0FF30EBE74FF0FF307047210D000070
:100DF000836C13B118460AF057B9C06C08B108F0FB
:100E00000FBE7047036D13B118460AF04DB9406D1F
:100E100008B108F005BE704700B5836C83B08DF84B
:100E2000071043B101220DF1070118460AF03CF901
:100E300003B05DF804FBC06C0028F9D001220DF16D
:100E4000070108F0EDFD03B05DF804FB8A79A2F11B
:100E500050031B0620D4F0B54B79046D0D798E78C4
:100E60004F780978013385B002F26C72DBB244B17D
:100E700003918DE8E000042120460AF06FF805B0E8
:100E8000F0BD406D0028FAD003918DE8E000042108
:100E900008F0A4FC05B0F0BD0020704770B590B01C
:100EA000857C02910446104603900490032201A918
:100EB0000DF11A0001930DF0BBFA012D12D00023A1
:100EC0000593ADF81830202200210DEB02008DF8BB
:100ED0001D101CF0D1FA236802A99B69204698478F
:100EE00010B070BD194A1378013303F00703D9011C
:100EF0001370C9B29A0748BF41F040015B0748BF71
:100F000041F020019DF81A20103105ABC9B20DF156
:100F1000170E4FF48076B2B1B6FBF2F2D2B2501C8B
:100F2000C0B200FB0115C5F3072C2D1218BF0CF140
:100F3000FF35D8701D7000B1DA7001339E45C2D004
:100F40009A79002AE8D1DA701A70F6E7BC1FFF1F01
:100F5000836C53B1187810F008000DD0D8695B6924
:100F6000C01A48BF6FF000407047C36CA3B193F83C
:100F7000310010F0080000D17047186919685A69EB
:100F80005B68401A62EB0303B0F1004F73F100039A
:100F9000F2D36FF0004070471846EDE7036D53B190
:100FA000187810F008000DD0D8695B69C01A48BFE6
:100FB0006FF000407047436DA3B193F8310010F01B
:100FC000080000D17047186919685A695B68401AAF
:100FD00062EB0303B0F1004F73F10003F2D36FF043
:100FE000004070471846EDE700B5006983B08DF802
:100FF000071060B10368104ADB68934215D1036D96
:1010000043B101220DF1070118460AF04DF803B073
:101010005DF804FB406D0028F9D001220DF10701B5
:1010200008F0FEFC03B05DF804FB01220DF107019E
:10103000984703B05DF804FB050E000038B5044680
:10104000806D0C4B236018B11BF002F80023A365E0
:10105000236D04F118054BB128460BF09FF9064BA0
:10106000A36028460BF09AF9204638BD636D002B2B
:10107000F2D1F4E7EC3202007832020038B50446CF
:10108000806D0E4B236018B11AF0E2FF0023A365B8
:10109000236D04F118056BB128460BF07FF9084B5E
:1010A000A36028460BF07AF920465C210DF02CFB5A
:1010B000204638BD636D002BEED1F0E7EC32020024
:1010C0007832020070B590B000230568ADF80430A6
:1010D0008DF806302E68304A96421CD1827C0391EE
:1010E0000491012A01A90446ADF81A308DF81C308C
:1010F00002911AD00593ADF81830202200210DEB93
:1011000002008DF81D101CF0B7F9AB6902A920464A
:10111000984710B070BDADF808308DF80A300A4617
:10112000029B01A9B04710B070BD1C4A137801336F
:1011300003F00703D9011370C9B29A0748BF41F001
:1011400040015B0748BF41F0200110310022C9B2C5
:1011500005AB0DF1170C4FF4807EB2B1BEFBF2F27D
:10116000D2B2501CC0B200FB0115C5F307262D12E8
:1011700018BF06F1FF35D8701D7000B1DA70013369
:101180009C4507D09A79002AE8D1DA701A700133A9
:101190009C45F7D12568B0E79D0E0000BC1FFF1FDE
:1011A00030B4029C11469C4634B1012C1CD0022C58
:1011B0000ED0002030BC7047056DF5B14FF0FF3305
:1011C000934274EB0C04F4D3284630BC09F09ABD6A
:1011D000026D0AB3D36959184CF10003002BE8D112
:1011E00030BC104609F08EBD026D62B153695918CA
:1011F0004CF10003002BDCD1F2E7406D0028D8D081
:1012000030BC07F079BD406D0028D2D0D0E9002372
:101210008A184CEB0303F3E7406D0028C9D0D0E9EE
:1012200004238A1830BC4CEB030307F065BD00BFF4
:1012300070B50569234B03600446002D32D06E68FB
:10124000013E6E6076BB2B681F4ADB6A93422FD14A
:10125000A86D10B11AF0FCFEAE652B6D23B305F13D
:1012600018000BF09BF82569E5B12B68174A5B68FD
:10127000934224D1A86D164B2B6018B11AF0E8FEEA
:101280000023AB652B6D05F11806A3B130460BF0BA
:1012900085F8104BAB6030460BF080F85C21284697
:1012A0000DF032FA204670BD6B6D002BD7D1DAE716
:1012B00028469847D7E76B6D002BE7D1E9E728462A
:1012C0009847EFE7C0320200F50600007D100000ED
:1012D000EC3202007832020070B50569254B0360DC
:1012E0000446002D32D06E68013E6E6076BB2B68DE
:1012F000214ADB6A934233D1A86D10B11AF0A8FEDF
:10130000AE652B6D43B305F118000BF047F8256966
:10131000E5B12B68194A5B68934228D1A86D184B38
:101320002B6018B11AF094FE0023AB652B6D05F10C
:101330001806C3B130460BF031F8124BAB603046A3
:101340000BF02CF85C2128460DF0DEF92046142124
:101350000DF0DAF9204670BD6B6D002BD3D1D6E7C6
:1013600028469847D3E76B6D002BE3D1E5E7284685
:101370009847EBE7C0320200F50600007D10000040
:10138000EC3202007832020038B5184D2C7824BBBC
:10139000282117480EF04EFCFE2116480CF06AFF7B
:1013A00014480CF06FFF1448FE210BF08DFD04462D
:1013B00040B91D2111480EF03DFC0E480CF062FFB3
:1013C000204638BD012320210D482B700EF032FC41
:1013D00008480CF057FF204638BD162109480EF08A
:1013E00029FC04480CF04EFF204638BD382FFF1F63
:1013F000803002005C16FF1F4855FF1FD0300200EE
:10140000AC300200683002002DE9F0471F219AB08D
:10141000044697480EF00EFC214696480CF02AFF31
:1014200094480CF02FFFFFF7AFFF002800F0DB809F
:10143000914D0494012184EA2423D5F884248DF865
:101440000C104B408DF81430002A00F0AB8006AC35
:10145000002311462046894A069309F0EDF9002839
:1014600040F0AF8044F20223844A854920460BF0C5
:10147000ADF8189B002B00F0DA805C200DF040F9ED
:10148000089B03619DF82430079A037504467D4B41
:101490007D4FC260002500F118060AA983604560EF
:1014A000076030460AF04CFF6368DFF8FC81A565F1
:1014B00001336360754BA3600AA8CDF818800AF069
:1014C0006DFF236872491A6B8A4240F0F380206DE9
:1014D000002800F0C180DB686E4A934240F0A18092
:1014E0000C220DEB020109F0DFFDA0F10C05B5FAAD
:1014F00085F5226881466D09D36ADFF8B4A15345AA
:1015000040F01981A06D18B11AF0A2FD0023A36567
:10151000236D002B00F00A8130460AF03FFF63681C
:10152000013B6360019373BB2268D26A524540F06D
:101530002181A06D18B11AF08BFD019BA365236D6D
:10154000002B00F00F8130460AF028FF2368524A32
:101550005B68934240F01E81A06D276018B11AF0BD
:1015600077FD0023A365236D002B00F00A81304630
:101570000AF014FF3046C4F808800AF00FFF5C211F
:1015800020460DF0C1F8B9F10C0F0CBF4348444898
:101590001D210EF04FFB37480CF074FE28461AB0A0
:1015A000BDE8F087D5F8881406AC00293FF45AAF9F
:1015B000134612922046314A07F040FE00283FF4BD
:1015C00051AFD5F88404D0B1002501462B4A0695C9
:1015D0000123204609F030F900283FF443AF2046AC
:1015E0000AF0E4F93EE705461F212E480EF022FBE3
:1015F00020480CF047FE28461AB0BDE8F087D5F821
:10160000881400293FF42EAF12901C4A0123204673
:1016100007F014FE00283FF425AF204607F072FEC5
:1016200020E70C220DEB0201204698475DE7199B4D
:10163000002B7FF422AF1C4B06930AA80AF0AEFEE3
:101640001A482C210EF0F6FA0A480CF01BFE002571
:1016500028461AB0BDE8F087606D78B3DB680D4AA4
:101660009342DED10C220DEB020108F0D9F93CE7E0
:10167000F03002005C16FF1F4855FF1F303102009A
:101680004C55FF1F54320200EC3202009C32020023
:101690001D060000050E00007D10000070310200E4
:1016A0009031020010310200783202004031020015
:1016B000F50600002046904700283FD12C213748EE
:1016C0000EF0B8FA36480CF0DDFD6568013D656046
:1016D000002DBCD12368334ADB6A934247D1A06D09
:1016E00010B11AF0B5FCA565236D002B36D030463D
:1016F0000AF054FE23682C4A5B68934246D1A06DE1
:10170000276018B11AF0A4FC0023A365236D002BF9
:1017100033D030460AF042FE3046C4F808800AF062
:101720003DFE5C2120460CF0EFFF90E7636D002B3F
:101730007FF4F2AEF3E620469847F0E622681B49B4
:10174000D3688B427FF46DAF206D00287FF4C8AE64
:10175000606D002886D105468146CDE6636D002B7D
:10176000C5D1C7E7636D002B7FF4EDAEEEE62046F2
:101770009847BFE720469047E8E6636D002BC8D145
:10178000CAE7636D002B7FF4F2AEF3E6204698477C
:10179000002530E720469847F5E600BF40310200BB
:1017A0005C16FF1FF50600007D100000050E00000E
:1017B0002DE9F04796B00546FFF7E6FD18B9284633
:1017C00016B0BDE8F087A74BD3F88424002A00F0B8
:1017D000AE8002AE002311463046A34A029309F0C0
:1017E0002BF80028EBD000239F4AA04930460AF08E
:1017F000EDFE149B002B00F0AA805C200CF080FF13
:10180000039BC360049B0361DFF880829DF8143062
:1018100003750446964B83604FF0000900F11807EA
:10182000C0E9008906A938460AF08AFD6368C4F851
:10183000589001336360DFF84C928E4BA36006A88A
:10184000CDF808900AF0AAFD23688B491A6B8A42EA
:1018500040F08780206D002800F0C180D3F808A0F8
:10186000864B9A4540F0B48031460C2209F038F896
:1018700023680646DB6ADFF810A2534540F0C480B7
:10188000A06D18B11AF0E4FB0023A365236D002BB3
:1018900000F0B58038460AF081FD6368013B636063
:1018A00001937BBB2268D26A524540F0C380A06D91
:1018B00018B11AF0CDFB019BA365236D002B00F03E
:1018C000B18038460AF06AFD23686D4A5B6893422E
:1018D00040F0B880A06DC4F8008018B11AF0B8FBD1
:1018E0000023A365236D002B00F0A78038460AF083
:1018F00055FD3846C4F808900AF050FD5C2120469A
:101900000CF002FF0C2E7FF45AAF9DF80830012B2B
:101910007FF455AF039BFF2B3FF651AF9DF810109E
:1019200083F00102D2B2914208BF1D4647E7D3F8C7
:10193000881400293FF443AF02AE13460E9230469E
:10194000494A07F07BFC00287FF44DAF37E7159B31
:10195000002B7FF452AF4B4B029306A80AF01EFDFA
:101960002DE720469047002872D16668013E6660E8
:10197000002E7FF424AF2368434ADB6A93424AD1A6
:10198000A06D10B11AF064FBA665236D002B3ED04C
:1019900038460AF003FD2368394A5B68934246D112
:1019A000A06DC4F8008018B11AF052FB0023A365A3
:1019B000236D002B32D038460AF0F0FC3846C4F8CC
:1019C00008900AF0EBFC5C2120460CF09DFEF6E648
:1019D00031460C222046D047236806464AE7626D0E
:1019E000002AC2D0D3F808A0244A9245F0D1606DF5
:1019F00058B331460C2207F093F8236839E7636D3A
:101A0000002B7FF447AF48E72046984745E7636DD2
:101A1000002BBDD1BFE720469847BCE7636D002B84
:101A2000C9D1CBE7636D002B7FF44BAF4CE7204669
:101A30009847C4E62046904746E7636D002B7FF445
:101A400055AF56E7204698475CE74FF0FF3010E768
:101A500023680A4AD3F808A09245B9D1206D00281E
:101A6000C5D001E74855FF1F303102004C55FF1F1C
:101A7000543202009C3202001D060000210D0000BD
:101A80007D10000078320200F5060000EC32020002
:101A900010B41A4A1A4B10781A491B4C10F0020F56
:101AA00018BF1946194809680180090C817011781E
:101AB000174892F800C011F0010F14BF19460146F3
:101AC0001CF0010F096821804FEA1141A1701478C0
:101AD00010490CBF1A460A4614F0040F08BF03460B
:101AE0000D4910681A680D4B0880040C100C8C709E
:101AF0001A8098705DF8044B704700BF4A5BFF1F67
:101B00003C20FF1F2020FF1F2C20FF1FF01FFF1F66
:101B10003820FF1F2820FF1F3020FF1F3420FF1F09
:101B20002DE9F04F83B0364BDFF8F4800093354F4A
:101B3000DFF8F0B000F52873824608F1040901933C
:101B4000009E002417E0F5B1696821B300EB400066
:101B5000384403220CF06CFCDBF80030AB423BD085
:101B6000294B1B68AB423BD0284B1B68AB423BD098
:101B700001340E2C19D018F8343056F8040F59F8E7
:101B80003450002BDFD15AF83450002DDCD1204BDB
:101B90001D68002DD8D100EB400000233B540134D8
:101BA00038440E2C43708370E5D1009B383300938A
:101BB000019B0AF1700A9A4508F1700809F1700951
:101BC000BED1144B1B7813B9134B1B7883B103B0F0
:101BD000BDE8F04FFFF75CBF0E4A01231370C7E763
:101BE0000D4B01221A70C3E70C4A01231370BFE7A3
:101BF0000A4B1B78002BEAD103B0BDE8F08F00BF81
:101C00002010FF1F5851FF1FC40CFF1F840FFF1F20
:101C1000800EFF1F8C52FF1F7830FF1F3055FF1FB3
:101C20009052FF1F780EFF1F2DE9F04F142083B054
:101C3000FFF7BEFD3C4D3D4A28601468BFF35B8F43
:101C400014F001044FD03A493A4F3B483B4EDFF87D
:101C5000E49000235422FEF701FC2B6838483B70C7
:101C6000FFF75EFF2B68374D0193002B9846B8BFF6
:101C700003F10308C8F3870887F800804FF0020BD0
:101C80002B4CA24603225046314692440CF0D0FB26
:101C9000AA45F7D141464846FEF734FC64200CF0D3
:101CA0008FFE002323706370A3700334AC42F9D11C
:101CB00039784846FEF726FC64200CF081FEBBF123
:101CC000010F04D097F800804FF0010BD8E7019B7B
:101CD0001B483B70FFF724FF3978164803B0BDE876
:101CE000F04FFEF70FBC10460CF0D2FC0028AAD033
:101CF000114B154A5C604FF0FF31D96001F500319E
:101D0000196111689C605C6161B1104A116801B190
:101D10008B600F48186000210448996113600CF033
:101D2000BDFC90E71360F0E77430FF1FC01FFF1F7A
:101D30005851FF1F981FFF1FC41FFF1F1020FF1FB8
:101D4000D431FF1F5452FF1FAC1FFF1FB01FFF1FD6
:101D50004833020010B43D4B3D4A1B68126883B003
:101D60000193019B9B1A092B04D8002003B05DF856
:101D7000044B7047374A384B11681B68374A5B1A67
:101D80001360002B5FD083EAE372A2EBE372B2F53B
:101D9000FA7FA8BF4FF4FA7207EE902AF8EEE77ABE
:101DA000B7EE007A77EEC77ADFED2D6A9FED2D7AD8
:101DB00087EEA66ADFED2C6ADFED2C7AE6EE076A85
:101DC00066EEA76A2A492B4C0A680132032AC8BF6B
:101DD00000220A6007EE903A2749284A91ED007ADE
:101DE000274BF8EEE77AB6EE006A67EEA67A27EEA2
:101DF000067AD2ED006A93ED005AA7EE867ADFEDFF
:101E0000217A81ED007A77EE266A67EE277AFDEE79
:101E1000E65AB0EE046A15EE900A67EE867ADFEDB8
:101E20001A5A84ED007A06EE100AE5EE257AB8EE2D
:101E3000C66AC3ED007A76EEC66AC2ED006A03B0E8
:101E40005DF8044B7047DFED116ABBE71C5AFF1FBA
:101E5000682FFF1F3C2FFF1F7C2FFF1F4430FF1FE9
:101E60000080F9430AD72340AE47E13E0AD7A33C9E
:101E70005430FF1F582FFF1F5030FF1F602FFF1FD0
:101E80004830FF1F9A99993E3333333FE02D103C81
:101E900000B970472DE9F8432D4B2E4FDFF8C49061
:101EA0002DED028B054601222B481A70FFF738FEF4
:101EB000002D9FED2A8A3C684FF0000826DD0026A1
:101EC00007EE904AF8EEE77A0136C7EE887A17EE09
:101ED000900A19F01FF802460B4620F0B3FE424666
:101EE0004B4620F0AFFE19F00BF90128B4BF04F106
:101EF000FF34241A012CB8BF0124B542E0D1184B9D
:101F00003C601C70BDEC028BBDE8F8836D4200267E
:101F100007EE904AF8EEE77A0136C7EE887A17EEB8
:101F2000900A18F0F7FF02460B4620F08BFE42465F
:101F30004B4620F087FE19F0E3F80128ACBF2418C7
:101F40000134FF2CA8BFFF24AE42E1D1D7E700BF88
:101F5000542FFF1F7430FF1FD431FF1F00007F4339
:101F6000981FFF1F00006040094B1B6843B107EE3C
:101F7000903AF8EEE77AFDEEE77A17EE900A00B9AC
:101F80007047002340421A46194640B20DF076BD14
:101F90004430FF1F38B500211B481C4D0BF0C4FD19
:101FA0000121044618480BF0BFFD19492318201AD7
:101FB00000280A68B8BF404203EBD3732860501C66
:101FC0004FEA630313D09A1A82EAE270A0EBE27040
:101FD0001E280DDD002A0B600BDB4EF2EA400DF0EF
:101FE00081FCBDE838404EF2EA400DF0D1BB0B60F9
:101FF00038BD4EF2E9400DF075FCBDE838404EF2B8
:10200000E9400DF0C5BB00BF802FFF1F402FFF1F11
:102010009011FF1F30B5254D254A2B6812689FEDA2
:10202000257A254C83B00093009B9B1A07EE903ACB
:10203000F8EE677A214B224AF4EEC77AF1EE10FAF5
:102040004CBF01210021197023680021022B11705F
:1020500025D0032B08D01B481B491C4A00230360D2
:102060000B70137003B030BD194BD3ED007A194BD0
:10207000F5EEC07AF1EE10FA93ED007AD8BFF1EEEA
:10208000677AB4EEE77AF1EE10FAE4D52A681249DD
:10209000124B0192019A1A6001200870DBE7104B85
:1020A0001868FFF7B1F92368D3E700BF1C5AFF1F78
:1020B0004C30FF1F000096438411FF1F4C2FFF1F61
:1020C000542FFF1F482FFF1F6C2FFF1F642FFF1F70
:1020D0004830FF1F8C11FF1F5C2FFF1F442FFF1F75
:1020E0007430FF1F2DE9F0472DED028B964B974D75
:1020F0001A682B7882B00192019C002B4FD0944B30
:102100001E68944F3B7823B1934A1368E31A0F2B50
:1021100009D8924A1368E31AB34243D202B0BDEC25
:10212000028BBDE8F08714608D4B8E4AD3ED007AA8
:1021300092ED007A8C4A67EE877A92ED007AC3EDD1
:10214000007AF5EEC07AF1EE10FAD4BFF1EE676ACC
:10215000F0EE676AB4EEE67AF1EE10FA3CD5DFF8FD
:10216000409299ED007A77EE877ABDEEE78AC9ED65
:10217000007A18EE103A002BCBD018EE102A00236C
:10218000524252B2194618460DF078FC99ED007A89
:10219000F8EEC87A77EE677AC9ED007AB9E7734B43
:1021A0001E68AEE7724814600BF016FB70480BF027
:1021B000B9FC704B1A688242064604D06E4A14601D
:1021C0006E4A002111601E605EB92B78002BA5D0ED
:1021D000FFF720FF2E70A1E700221A6000233B705A
:1021E00097E7DFF8C081DFF8C091D8F80030604889
:1021F000C9F8003000210BF097FC0021C8F800005E
:102200005B48DFF8A8A10BF099FC5D4A82FB003225
:102210005C4B1860C317C3EBA213CAF800302B78CD
:10222000ABB9D8F80030C9F80030574B574A18609E
:10223000574B1C6001232B701360504B00221A6017
:1022400000233B7002B0BDEC028BBDE8F0874F4A23
:1022500013680133022B1360EFDD474B1B68E41A50
:102260000A2CEAD9FFF776FD012E044608D0022E8B
:1022700035D1DAF80030082BE2DDFFF78BFEDFE71F
:10228000DAF800301E2B3BDC424B1B68013B032B72
:10229000D6D8DFE803F0120F0502FFF765FECFE79F
:1022A0000028CDD00023424252B2194618460DF004
:1022B000E5FBC5E7FFF7ECFDC2E70028C0D034DD41
:1022C00000254FF250000DF00DFB01354FF250008C
:1022D0000DF05EFAAC42F4D10DF038F9B0E7032E00
:1022E00014D02D4C2378002BAAD14EF2E2400DF0F1
:1022F000F9FA4EF2E2400DF04BFA012323709FE70A
:10230000A3F11F02132AB8D9322B99DD234C23786D
:10231000002B95D14EF2CD400DF0E4FA4EF2CD40B7
:102320000DF036FA012323708AE7444200254FF26C
:102330004F000DF0D7FA01354FF24F000DF028FA9B
:10234000AC42F4D17CE700BF1C5AFF1F782FFF1F5F
:102350008011FF1F5C2FFF1F442FFF1F3C30FF1F0A
:102360004830FF1F8811FF1F8C11FF1F7C11FF1FBA
:10237000802FFF1F742FFF1F682FFF1F602FFF1F6D
:102380001F85EB51702FFF1F4030FF1F482FFF1F8D
:102390004C30FF1F8411FF1F642FFF1F6C2FFF1F86
:1023A0005830FF1F7C2FFF1F3C2FFF1F502FFF1F98
:1023B0001A4B1B7833BB1A4B1A481A685968891A8A
:1023C000CB1000FB03F3013B1CD418390A4403E093
:1023D000591CA2F1180215D0517B013B0029F7D0FE
:1023E0001068114B984212D0104B98420FD0104BEE
:1023F000984210D00F4B104A98420CBF042301237F
:10240000136070470D4801230B4A136070470A4A56
:102410000223136070470323F6E700BF7434FF1FE5
:102420006830FF1FABAAAAAA7834FF1F9841FF1F8C
:10243000B839FF1F184CFF1F8411FF1FD431FF1F35
:1024400010B50446A4B24EF202000DF04BFA20463D
:102450000DF048FA20460DF09BF9BDE810404EF211
:1024600002000DF095B900BF08B54EF208000DF05E
:1024700039FA4EF202000DF035FA4EF201000DF07D
:1024800031FABDE808404EF204000DF02BBA00BF4F
:1024900008B54EF202000DF025FA4EF201000DF0E3
:1024A00021FABDE808404EF204000DF01BBA00BF4F
:1024B000244B82B01B680193A0F523408038019B18
:1024C00003280BD8DFE800F002291B0C1E4A5079C4
:1024D000936001211171117000282CD102B0704756
:1024E000194A907953610121D171D1700028F5D03A
:1024F000116999423CBF0023937002B07047124AA1
:10250000D07913610121917191700028E6D0516951
:102510009942E3D20023D370E0E70B4A1079D360ED
:102520000121517151700028D8D091689942D5D2BB
:1025300000231370D2E7D1689942CFD200235370A1
:10254000CCE700BF1C5AFF1F7452FF1FA0F52340A9
:102550008038032809D8DFE800F01D130209144B66
:10256000D97900229A719A70F1B97047104B997914
:102570000022DA71DA700029F7D001229A707047D0
:102580000B4B197900225A715A700029EDD00122A3
:102590001A707047064B597900221A711A70002977
:1025A000E3D001225A7070470122DA70704700BFF1
:1025B0007452FF1F30B5174C174D23682A6883B03B
:1025C0000093009B9B1A012B17D9144BDA7898784B
:1025D000AAB940421A781AB95978B9B1012103E071
:1025E0005B787BB94FF0FF31002340B21A460DF003
:1025F00045FA23680193019B2B6003B030BDC0F105
:102600000100E7E70028F4D00021EDE70028F0D032
:10261000EAE700BF1C5AFF1FD031FF1F7452FF1F93
:102620002DE9F04F46780378B249F000702209682E
:1026300012FB030288188A58456887B0002A00F008
:102640005281AD49AD4809680591C3EBC30106EB62
:10265000410100EBC10CAA4F1488CCF804203A6861
:10266000ACF8024093424FF0010C00F831C0DDF8A5
:1026700014B0DFF8AC9200F01181DFF8A882002DD1
:1026800000F0348129884AF25822914258D05D46A0
:102690003B609C4BC9F80060D3F800905B68C8F8B9
:1026A0000050A3EB0908984B4FEAE80003FB00F049
:1026B000D8B1CE46002008EB09074FF0010A9EF87A
:1026C0000C5055B1BEF808108C4200F0B180012DBD
:1026D00003D0BEF80A20A24237D00EF1180EBE4534
:1026E000EDD110B1894B01221A704AF214039C42B9
:1026F00000F0CA804AF215039C4200F28C80B4F5C7
:10270000204F40F21181A4F52043013B142B00F22D
:102710000B81DFE813F03E010901090109010901FC
:102720000901090109010901090109010901090159
:102730000901090109012F014601090109012D01C2
:102740004FF0FF331E460025A2E7DEF80420013AD1
:10275000042A51D8DFE802F0053350091E00AC45C9
:1027600036D18EF80DA00120B7E79EF8140000289E
:1027700044D0DEF81030ABEB0303C72B3ED88C42BD
:102780003CD14FF000038EF80DA08EF814308EF877
:102790000E30A2E79EF80D00002863D08C429CD139
:1027A0009EF81420002A40F007819EF81530002B77
:1027B00040F01E818EF80D308EF80E308DE7013D11
:1027C000EDB20EF10803022212FB05350EF1060CE4
:1027D0003CF8020F8442C2D04D4901F52876A1F1A0
:1027E00070031A7812B15A888242B8D008339942DD
:1027F000F7D17031B142F2D101206EE79EF80D00A1
:1028000000287FF46AAF8EF814A0CEF810B08EF8CE
:102810000EA0012061E74AF296139C4240F08480AA
:102820003C4A137883F00103137007B0BDE8F08FC2
:10283000DEF80420013A042ADED801A050F822F084
:1028400063270000BF270000552800006B27000009
:10285000952700009EF80D3083F001038EF80D30AF
:1028600001203AE79EF8143043B1DEF81030ABEBAC
:102870000303C72B02D88C4200F0A4809EF81500F9
:1028800000287FF42AAFBEE7234A13781F490120AE
:1028900043401370087007B0BDE8F08FD9F80020EE
:1028A000DFF8808096427FF4EAAED8F80020ABEBE8
:1028B0000202C72A3FF6E3AE002D00F0958028887B
:1028C0004AF25823984200F0BE800DF00BF8288899
:1028D0000CF05EFF4FF0FF3300223B60C9F8003080
:1028E000C8F80020A1E70D4A1268AAE64FF0FF33AE
:1028F0001E46CDE69411FF1F1C5AFF1F9052FF1F6A
:102900009C11FF1F6830FF1FABAAAAAA8C2CFF1FC7
:102910000053FF1F5852FF1FE91FFF1F800EFF1FAC
:102920009811FF1FCC31FF1F00287FF47EAF4AF2C1
:1029300058239C423FF479AFAA4A136851688B42EE
:1029400003D157E00833994254D01888A042F9D1F6
:10295000596800293FF469AF084603911BF0D0F88D
:1029600003990246A04807B0BDE8F04F0BF028BC21
:102970009E4A8AE79E4A137883F00103137013B1CD
:102980009C4B00221A709C4B01221A7007B0BDE8C4
:10299000F08F9A49984A01230B70137007B0BDE875
:1029A000F08F944A137883F001031370002BEAD060
:1029B0008F4B00221A70E6E7DEF81030ABEB030312
:1029C000C72B0FD84FF000038EF814304FF00203DE
:1029D0008EF80DA08EF815A0CEF810B08EF80E303F
:1029E00001207AE6104678E64FF0FF3633464FE690
:1029F000184672E6D56813699D4203D128E00C356C
:102A0000AB4225D02A88A242F9D14EF240000CF008
:102A100069FF2B7A83B1002634466B6833F82400B3
:102A20000CF060FF6B6833F824000CF0B1FE013647
:102A30002B7AF4B2A342F0D84EF2400007B0BDE8C2
:102A4000F04F0CF0A5BE4FF0FF36334600251FE6D1
:102A50006B4900234AF2893201E051F83320944255
:102A600061D001330B2BF8D14AF295339C423ED80A
:102A70004AF27F339C421CD9A4F52343803B152B9B
:102A800035D8DFE813F00C010C010C010C01040136
:102A9000FC00F800F400F00034003400340034008E
:102AA0003400340034003400340034003400CD00ED
:102AB0008B004AF259239C4230D04AF25B239C425D
:102AC0002AD04AF263039C4211D14EF204000CF06A
:102AD00009FF0CF03BFD4FF22B000CF003FF4FF20F
:102AE0002B000CF055FE474B01221A709DE646491B
:102AF00000234AF2640204E00133202B20D051F875
:102B00003320A242F8D1404A02EBC303586807B011
:102B1000BDE8F04FFFF794BC0CF05CF807B0BDE8DF
:102B2000F04F0CF07DBD364A384902EBC303384AFA
:102B300058680860107007B0BDE8F04FFEF764BC3D
:102B40004AF25A239C4212D04AF216039C420BD0FE
:102B50004AF217039C4201D1FFF79AFC204607B0C6
:102B6000BDE8F04F0CF0BEBEFFF77EFCF6E7C844B0
:102B7000002303E089F80D3009F11809C145F9D1A6
:102B80001E4D244C19481A491A4A00232B702370F1
:102B900003700B7013700CF043FDF4E61B4DDFED7A
:102BA0001E7A2C6807EE104AB8EEC77AC7EE277A6D
:102BB00017EE900A18F0AEF902460B4620F042F8E4
:102BC0000022164B20F03EF818F09AFA0128B4BF04
:102BD00004F1FF34241A0E4A012CB8BF01242C60E2
:102BE000147022E65C52FF1F5416FF1FEA1FFF1FDE
:102BF000EC1FFF1FEB1FFF1F8C2CFF1F7434FF1FE8
:102C0000643402000B20FF1F643302007430FF1F86
:102C1000981FFF1FE91FFF1F00007F430000604057
:102C2000224DDFED237A2C6807EE104AB8EEC77A02
:102C3000C7EE277A17EE900A18F06CF902460B4699
:102C400020F000F800221B4B1FF0FCFF18F058FA90
:102C50000128ACBF24180134174AFF2CA8BFFF2459
:102C60002C601470E1E5154B02221A60DDE5134B70
:102C700003221A60D9E5114B01221A60D5E5002321
:102C800000930122194618460CF048FFCDE50023B9
:102C900000931A46194601200CF040FFC5E5204676
:102CA00007B0BDE8F04FFFF703BC00BF7430FF1F53
:102CB00000007F4300006040981FFF1F8411FF1F2A
:102CC0002DE9F04F027843789F4CC2EBC20203EB30
:102CD000420304EBC30285B05168002900F09F80D5
:102CE0009A4E0D88002704F83370D6E9000305F5E5
:102CF000BF4808F16C0898421FFA88F8578057605F
:102D00001FD00024924ADFF85C92DFF85CB22746BD
:102D100004EB440300EBC300037B43B1B0F808C0ED
:102D2000AC4533D0012B02D04389AB422ED0D6E93B
:102D3000000388491B1ADB10013401FB03F39C429A
:102D4000E6D3B8F1010F1ED94AF217039D4215D8F8
:102D5000B5F5204F70D9A5F52043013B162B6BD854
:102D6000DFE803F07C6A6A6A6A6A6A6A6A6A6A6A9F
:102D70006A6A6A6A11116A6A6A856D004AF2961374
:102D80009D4240F0878005B0BDE8F08F43684FF06A
:102D9000010E013B82F800E0042BC8D8DFE803F005
:102DA0000E0A08032200437B9BBB00230375837339
:102DB0000127BCE7002343730127B8E74AF2030366
:102DC0004FF0000A9D4280F80DA0F1D19BF80070F1
:102DD000002FEDD04EF204000CF0DAFC5C4A8BF8C8
:102DE00000A0A4E7477D002FE2D0AC45E0D1D9F8A0
:102DF00000300393039B01695B1A4FF0000CC72B53
:102E00004FF0000380F815C088BF80F80DC08373B1
:102E10008DE700234373002303758373C8E74B4E8C
:102E200004F83310D6E9000383425180ABD04FF44D
:102E300011784AF2582564E7002FA4D132E04EF20F
:102E400004000CF0A5FC4EF201000CF0A1FC4EF2C7
:102E5000020005B0BDE8F04F0CF09ABC3E493C4B77
:102E60000020012208701A7005B0BDE8F08F4EF204
:102E700004000CF08DFC4EF201000CF089FC4EF2C7
:102E800002000CF085FC4EF2080005B0BDE8F04FE2
:102E90000CF07EBC002F7FF476AF4AF258239D429F
:102EA0003FF471AF2D4B4AF2893203F1500101E03A
:102EB00053F8082F95423CD08B42F9D1002105F5FB
:102EC000B8436C339BB2012B19D905F5B8437A335B
:102ED0009BB2022B13D905F5BB4327339BB2022BC0
:102EE00098BF01211E4B4AF2640203F1F80003E08F
:102EF000984206D053F8082FAA42F9D143E701219E
:102F0000F0E700297FF43FAF05F5B8437C339BB26F
:102F1000012B10D94AF27F339D420CD005F5B943FD
:102F20009BB2032B284694D805B0BDE8F04FFFF7BD
:102F30000DBB0121C3E7002300931A46194618462A
:102F40000CF0ECFD1FE700BF9052FF1F6830FF1F21
:102F50008C2CFF1FABAAAAAA7434FF1F6434020092
:102F6000643302001C5AFF1F0B20FF1F4A4B70B432
:102F70001D78002D00F08380484A494B1168C3F842
:102F800050120022C3F85422464B1C78002C67D004
:102F9000454A434B454912680968C3F8602200223C
:102FA000C3F864229966DA66414B1B78002B4CD03B
:102FB00040493B4A0968C2F850110021C2F8541137
:102FC0003D4A12783D49002D3AD009683C48486096
:102FD0003C49002C2FD00968394848602BB33A4B44
:102FE0003A491B68596082B1394B3A4A3A491B68E1
:102FF000D2F850010C6839496160984203D01268D8
:10300000934208BF596070BC7047334B3049314A16
:103010001B680968126803F108008A425860F2D1FF
:1030200002F1080370BC53607047274B1B6803F123
:1030300008015960D7E7096801F108004860CDE749
:10304000096801F108004860C2E71B4A1278EAB13A
:10305000234813490068C1F85431C1F85001B1E761
:10306000204A214B92E80300A2F5FC7283E803009A
:1030700092E80300A3F5FC7383E8030094E71B4A7E
:103080001B4B92E8030083E803007DE719491A4EC1
:1030900003C986E8030095E7E91FFF1FC80DFF1F5E
:1030A000D431FF1FEA1FFF1F340FFF1F8C0CFF1FBF
:1030B000EC1FFF1FBC0CFF1FEB1FFF1F4C0CFF1F63
:1030C0002020FF1F500CFF1FCC0CFF1F3C20FF1FB8
:1030D000180DFF1F942CFF1FC80CFF1FF41FFF1FAC
:1030E000C40CFF1FF42EFF1F3434FF1FE42EFF1FFC
:1030F0002434FF1FE42DFF1F2433FF1F2DE9F04F61
:103100008B4B2DED028B1B7889B0002B40F0068194
:10311000884A894B12680792079D1A68AA4200F0F4
:103120009D801D60854B864A019300230592049380
:10313000844A02922723844A844F854EDFF82C92DA
:10314000DFF83C82039208EE103A18EE100A0021D4
:103150000BF0A0FB3C23013BFDD1DFF828B2DDF8EA
:103160000CA0029C2B4611215D469B4656F831303F
:10317000A17893F8003203F0010383F0010081424B
:103180004AD0DAF80010ABEB0101072926D92178E3
:1031900094F801C0A070D9F80000CAF800B0C1EBE3
:1031A000C101090100EBCC00415801B31BBB204613
:1031B000FFF736FA2378C3EBC301637803EB4103CF
:1031C00008EBC30358884AF20103984202D0FDF786
:1031D00045FB18B1019B4FF001021A70BD4204F18A
:1031E00003040AF1040A1FD015F8011BBEE7594A6F
:1031F0001168002BDBD020460091FFF761FD23789A
:103200000099C3EBC300637803EB400308EBC303EF
:103210005B680BB31888D6E7BD42CAF800B004F16A
:1032200003040AF1040ADFD1029B049C2A330293AF
:10323000039B2A34383318EE100A012104940393B7
:103240000BF028FBFC2C5D460AD0059B13F8012FE0
:10325000059308EE102A78E70888B4E7374B019306
:10326000FEF740FFFFF7A6F93B4A3C491368506858
:10327000C01AC21001FB02F2002A35D00024184403
:1032800026461A7D32B11969691AC82902D91E75F4
:103290009E73144618339842F3D12CB3304B0199E6
:1032A00001220A701A68013204D02E4A1168691A84
:1032B000C82924D82C4A1560019A00231370FFF7FF
:1032C00077F82A4B1A689042294A18BF186012787A
:1032D0004AB3FFF74BFE2748017809B0BDEC028BDB
:1032E000BDE8F04FFDF70EB9019B1C781C4B1A6826
:1032F00001320BD01B4A1168691AC82906D94FF050
:10330000FF311D481960002301601360164A002C2C
:10331000D1D11368EB1A312BDDD9CCE70BF02EFBA2
:10332000164B1860F4E61868FEF7FAFBD1E700BF09
:103330005852FF1F1C5AFF1F342FFF1F8C2CFF1FDA
:10334000BC340200A011FF1F7C30FF1FD2340200EA
:10335000E03A0200800EFF1F6830FF1FABAAAAAA46
:103360009C11FF1FCC31FF1F902CFF1F9411FF1FDA
:10337000542FFF1F981FFF1F9811FF1F5452FF1F4C
:103380009052FF1FC53402002DE9F04FD0F8009095
:1033900044680E46A4EB09055B490746ED105B48FF
:1033A00001FB05F5854285B000F0AB80012D294673
:1033B00038BF01216D1880F0A080A6EB090B002D0D
:1033C00040F0888001954FF0180AA84618681368E5
:1033D00048F80B300E9A0E9B52681B680F9D08EB45
:1033E0000B0103EB42024FF0000CB5F800E048601F
:1033F0009A42A1F80CC081F80EC0C1F810C0A1F823
:1034000014C0A1F816E00CD09C463CF802BBA1F811
:1034100008B062455CD0B3F802C0A1F80AC002232C
:103420000B7303284BD0052849D04E4524D008F112
:10343000180BCA46D646BEE80F00ABF1180CACE834
:103440000F009EE803000AF1180AB2458CE8030059
:103450000BF1180BEED1A6F1180A2D4BAAEB090AB5
:103460004FEADA0A03FB0AFA2AF0604A0AF1020A72
:103470000AEB4A0A08EBCA0AA64210D0A21B244B48
:10348000183AD20803FB02F222F06042013202EB4A
:103490004202D2005046314692440AF0C9FFB9F1C7
:1034A000000F05D0B9684846A1EB09010BF02CF9D3
:1034B000019BBB60C7E9008A05B0BDE8F08FBEF193
:1034C000000FB2D10B7B002BAFD00B89CB82ACE7C6
:1034D0000123A5E7854228BF054605EB4505ED001C
:1034E0002846039302920BF00BF92B180193029AD2
:1034F000039B804600F1180A68E7064DA6EB090B0E
:10350000EEE705480CF060FEABAAAAAA5555550592
:10351000ABAAAA0AF8FFFF7FB031020030B54468B9
:103520008568AC4283B02FD084461068069A09683B
:103530001588D3E9002302EB4303216093424FF047
:1035400000016060E582A181A1732161A1820AD09E
:10355000114631F802EBA4F808E08B421ED05188E6
:10356000618102232373032806D0052804D0183470
:10357000CCF8044003B030BD002DF8D1237B002BE4
:10358000F5D02389E382F2E7069DCDE900351346A5
:103590000A462146FFF7F8FE03B030BD0123E1E7FC
:1035A0002DE9F84FD0F8008046680F4692466FF03C
:1035B0007041A6EB0802B1EBE20F59D0D310012BFA
:1035C0001A4638BF01229C1805464DD2A7EB0809C0
:1035D000A346002C3ED19AE803000BEB0903B9F196
:1035E000000F83E8030025DCF61B09F10809002E13
:1035F000D94415DC4E44B8F1000F05D1C5F800B030
:103600006E60AC60BDE8F88FA968A1EB0801404688
:103610000BF07AF8C5F800B06E60AC60BDE8F88FCA
:103620003246394648460AF003FF4E44B8F1000FCF
:10363000E4D0E9E74A46F61B4146584619F0A0FE99
:1036400009F10809002ED944EADCA9684E44A1EB2F
:103650000801DCE78C4228BF0C46E40020460BF052
:103660004FF883460444B6E7034CA7EB0809F5E797
:1036700002480CF0A9FD00BFF8FFFF7FB031020047
:103680002DE9F84FD0F8008046689146A6EB080374
:10369000324A0F469B10324902FB03F38B425AD049
:1036A000012B1A4638BF01229C1805464FD2A7EBC2
:1036B000080AA346002C3ED199E807000BEB0A0349
:1036C000BAF1000F83E8070025DCF61B0AF10C0AAB
:1036D000002EDA4415DC5644B8F1000F05D1C5F8C8
:1036E00000B06E60AC60BDE8F88FA968A1EB08017E
:1036F00040460BF009F8C5F800B06E60AC60BDE85C
:10370000F88F3246394650460AF092FE5644B8F1D8
:10371000000FE4D0E9E75246F61B4146584619F03F
:103720002FFE0AF10C0A002EDA44EADCA96856449E
:10373000A1EB0801DCE78C4228BF0C4604EB4404F3
:10374000A40020460AF0DCFF83460444B4E7054C9D
:10375000A7EB080AF5E704480CF036FDABAAAAAAC5
:10376000AAAAAA0AF8FFFF7FB031020008B5826852
:103770004368934207D0844607C983E807000C33A7
:10378000CCF8043008BD0A461946FFF779FF08BD9A
:1037900070B5C84CC8496368A26884B04AF29010FA
:1037A0009342ADF80400029101AD00F0938395E8D7
:1037B000030083E80300083363604AF29211ADF816
:1037C00004109342BD49029100F08C8395E80300F8
:1037D00083E80300083363604AF29311ADF80410E4
:1037E0009342B749029100F0858395E8030083E88E
:1037F0000300083363604AF29411ADF804109A4252
:10380000B049029100F07E8395E8030083E803004D
:10381000083363604AF29511ADF804109342AA4947
:10382000029100F0778395E8030083E803000833F2
:1038300063604AF29711ADF804109342A3490291D4
:1038400000F0708395E8030083E8030008336360A9
:103850004AF29811ADF804109A429D49029100F085
:10386000698395E8030083E80300083363604AF244
:103870009911ADF8041093429649029100F06283C9
:1038800095E8030083E80300083363604AF29B1164
:10389000ADF8041093429049029100F05B8395E8E3
:1038A000030083E80300083363604AF29A11ADF81D
:1038B00004109A428949029100F0548395E803006C
:1038C00083E80300083363604AF29C11ADF80410EA
:1038D00093428349029100F04D8395E8030083E809
:1038E0000300083363604AF29D11ADF8041093425F
:1038F0007C49029100F0468395E8030083E80300C9
:10390000083363604AF29E11ADF804109A4276497A
:10391000029100F03F8395E8030083E80300083339
:1039200063604AF29F11ADF8041093426F4902910F
:1039300000F0388395E8030083E8030008336360F0
:103940004AF2A011ADF8041093426949029100F0C7
:10395000318395E8030083E80300083363604AF28B
:10396000A111ADF8041093426249029100F02A833C
:1039700095E8030083E80300083363604AF2A2116C
:10398000ADF8041093425C49029100F0238395E85E
:10399000030083E80300083363604AF2A311ADF823
:1039A000041093425549029100F01C8395E80300EE
:1039B00083E80300083363604AF2A411ADF80410F1
:1039C00093424F49029100F0158395E8030083E884
:1039D00003000833636005244A4B4B480293294691
:1039E0004AF2CE02ADF804208DF80C40FFF7BEFE7F
:1039F000464B4548029329464AF2C802ADF80420D6
:103A00008DF80C40FFF7B2FE414B3F480293294628
:103A10004AF2CD02ADF8042003268DF80C40FFF7E2
:103A2000A5FE4AF2C9023B4B3748ADF804202946AF
:103A300002938DF80C60FFF799FE374B02932946ED
:103A40004AF2CA033048ADF804308DF80C60FFF735
:103A50008DFE324B2C48029329464AF2CB02ADF838
:103A600004208DF80C40FFF781FE2D4B2648029371
:103A700029464AF2CC02ADF804208DF80C40FFF73D
:103A800075FE284B2048029329464AF2CF02ADF832
:103A900004208DF80C40FFF769FE234B1A4802936F
:103AA00029464AF2D002ADF804208DF80C40FFF709
:103AB0005DFE3BE05C52FF1FCC310200E8310200AA
:103AC000F4310200FC310200003202000432020034
:103AD0000C320200103202001432020018320200CE
:103AE0001C3202002032020024320200283202007E
:103AF0002C320200343202003C320200403202001A
:103B000044320200D43402006852FF1FE83402003D
:103B1000FC340200103502001C350200283502007A
:103B20003C3502005035020064350200C74BC848DE
:103B3000029329464AF2D102ADF804208DF80C40D8
:103B4000FFF714FEC34BC248029329464AF2D20241
:103B5000ADF804208DF80C40FFF708FEBE4BBC48C2
:103B6000029329464AF2D302ADF804208DF80C40A6
:103B7000FFF7FCFDB94BB648029329464AF2D4023E
:103B8000ADF804208DF80C40FFF7F0FDB44BB048C1
:103B9000029329464AF2EF02ADF804208DF80C405A
:103BA000FFF7E4FDAF4BAA48029329464AF2D5023B
:103BB000ADF804208DF80C40FFF7D8FDAA4BA448BF
:103BC000029329464AF2F002ADF804208DF80C4029
:103BD000FFF7CCFDA54B9E48029329464AF2D60238
:103BE000ADF804208DF80C40FFF7C0FDA04B9848BD
:103BF000029329464AF2D702ADF804208DF80C4012
:103C0000FFF7B4FD9B4B9248029329464AF2D80233
:103C1000ADF804208DF80C40FFF7A8FD964B8C48BA
:103C2000029329464AF2D902ADF804208DF80C40DF
:103C3000FFF79CFD914B8648029329464AF2F10218
:103C4000ADF804208DF80C40FFF790FD8C4B8048B8
:103C5000029329464AF2DA02ADF804208DF80C40AE
:103C6000FFF784FD874B7A48029329464AF2DB022C
:103C7000ADF804208DF80C40FFF778FD824B7448B6
:103C8000029329464AF2DC02ADF804208DF80C407C
:103C9000FFF76CFD7D4B6E48029329464AF2DD0228
:103CA000ADF804208DF80C40FFF760FD784B6848B4
:103CB000029329464AF2DE02ADF804208DF80C404A
:103CC000FFF754FD734B6248029329464AF2DF0224
:103CD000ADF804208DF80C40FFF748FD6E4B5C48B2
:103CE000029329464AF2E002ADF804208DF80C4018
:103CF000FFF73CFD694B5648029329464AF2E10220
:103D0000ADF804208DF80C40FFF730FD644B5048AF
:103D1000029329464AF2E202ADF804208DF80C40E5
:103D2000FFF724FD5F4B4A48029329464AF2E3021B
:103D3000ADF804208DF80C40FFF718FD5A4B4448AD
:103D4000029329464AF2E4020426ADF804208DF8D5
:103D50000C40FFF70BFD4AF2E502544B3C48ADF82E
:103D60000420294602938DF80C60FFF7FFFC504BAE
:103D7000029329464AF2E6033548ADF804308DF83F
:103D80000C60FFF7F3FC4B4B029329464AF2E70322
:103D90002F48ADF804308DF80C60FFF7E7FC464B78
:103DA0002B48029329464AF2E802ADF804208DF828
:103DB0000C40FFF7DBFC414B2548029329464AF2B1
:103DC000E902ADF804208DF80C40FFF7CFFC3C4B26
:103DD0001F48029329464AF2EA02ADF804208DF802
:103DE0000C40FFF7C3FC374B1948029329464AF2AF
:103DF000EB02ADF804208DF80C40FFF7B7FC324B16
:103E00001348029329464AF2EC02ADF804208DF8DB
:103E10000C40FFF7ABFC2D4B0D48029329464AF2AC
:103E2000ED02ADF804208DF80C40FFF79FFC284B05
:103E3000074802934AF2EE022946ADF804208DF8B5
:103E40000C40FFF793FC04B070BD00BF7835020052
:103E50006852FF1F8C350200A0350200B435020005
:103E6000C8350200DC350200F035020004360200DD
:103E7000183602002C36020040360200543602008A
:103E8000683602007C36020090360200A43602003A
:103E9000B8360200CC360200E0360200F4360200EA
:103EA000083702001C370200303702004437020096
:103EB000543702006437020074370200883702006A
:103EC0009C370200B0370200C4370200D837020026
:103ED000EC370200114620462A46FFF761FB636873
:103EE000A2686AE4114646482A46FFF759FB636810
:103EF000A26871E4114642482A46FFF751FB636805
:103F0000A26878E411463E482A46FFF749FB6368F9
:103F1000A2687FE411463A482A46FFF741FB6368EE
:103F2000A26886E4114636482A46FFF739FB6368E3
:103F3000A2688DE4114632482A46FFF731FB6368D8
:103F4000A26894E411462E482A46FFF729FB6368CD
:103F5000A2689BE411462A482A46FFF721FB6368C2
:103F6000A268A2E4114626482A46FFF719FB6368B7
:103F7000A268A9E4114622482A46FFF711FB6368AC
:103F8000A268B0E411461E482A46FFF709FB6368A1
:103F9000A268B7E411461A482A46FFF701FB636896
:103FA000A268BEE4114616482A46FFF7F9FA63688C
:103FB000A268C5E4114612482A46FFF7F1FA636881
:103FC000A268CCE411460E482A46FFF7E9FA636876
:103FD000A268D3E411460A482A46FFF7E1FA63686B
:103FE000A268DAE4114606482A46FFF7D9FA636860
:103FF000A268E1E402482A461946FFF7D1FAEAE44A
:104000005C52FF1F2DE9F0478AB0B24B069305AD15
:104010004AF20203012404AF0026AF48ADF8103085
:10402000009508AB07AA06A9079409940897ADF86C
:104030001460FFF773FADFF8D4C2A748009508AB05
:1040400007AA06A9CDF818C04AF2060CCDE90874F3
:104050004AF203080794ADF81460ADF810C0FFF7FA
:104060005DFADFF8ACC29C48009508AB07AA06A928
:10407000CDE908740794ADF81460ADF81080CDF860
:1040800018C0FFF74BFADFF88CC29348009508ABD5
:1040900007AA06A9CDF818C04AF2070CCDE90874A2
:1040A0000794ADF81460ADF810C04AF2040AFFF7A7
:1040B00035FADFF864C28848009508AB07AA06A95C
:1040C000CDE908740794ADF81460CDF818C0ADF8C8
:1040D00010A0FFF723FADFF844C27F48009508AB31
:1040E00007AA06A9CDF818C04AF2080CCDE9087451
:1040F0004AF205090794ADF81460ADF810C0FFF757
:104100000DFADFF81CC27448009508AB07AA06A98F
:10411000CDE908740794ADF81460ADF81090CDF8AF
:1041200018C0FFF7FBF9DFF8FCC16B48ADF8108051
:1041300000954FF0050808AB07AA06A9CDE9087459
:10414000ADF81460CDF81C80CDF818C0FFF7E6F983
:10415000DFF8D4C16048009508AB07AA06A9CDE9ED
:104160000874CDF818C0CDF81C80ADF81460ADF817
:1041700010A0FFF7D3F9584809940095574CADF8B3
:10418000109008AB07AA06A9CDF81C800897DFF8A5
:104190009C81ADF814600694FFF7C0F90224DFF8A3
:1041A00090C14D48009708AB07AA06A90895ADF83D
:1041B000106007940994CDF81880CDF814C0FFF76B
:1041C000ADF9DFF870C14448009708AB07AA06A90B
:1041D000CDE90684CDE90854ADF81060CDF814C0DF
:1041E000FFF79CF908953E4D0097079409943A48CB
:1041F0003C4CCDF8188008AB07AA06A9ADF81060B2
:104200000594394F394CDFF83091FFF787F92E6864
:1042100040F2EE280BF016FE2378002B4DD03B78B1
:10422000DB074AD52B68D9F800209B1A0E2B44D9FE
:104230002F49002201F52870A1F170031A705A80ED
:104240005A6008338B42F9D103F170018142F3D1F6
:1042500028492948294C4FF428720AF0E9F84FF40C
:104260007A700AF0ADFB04F10D05112001E014F89D
:10427000010F02210AF046FBA542F8D1204C27206D
:10428000651D01E014F8010F039001210AF03AFBCB
:10429000039801210AF0FEFAA542F3D1FDF774F864
:1042A000FFF776FA174B1848FF22012109F0CEFBE1
:1042B0000AB0BDE8F047FDF7B7BC2B6822789B1B1E
:1042C0002AB1B3F5FA6FB3D80BF0BCFDA2E74345B2
:1042D000FAD9ADE77834FF1F6830FF1F3844FF1F5D
:1042E0001C5AFF1F04A005A0785BFF1F2F5BFF1F58
:1042F0000053FF1F942CFF1FD431FF1FC434020052
:10430000BC3402009C12FF1F802FFF1F1837FF1FB5
:10431000B839FF1F7849FF1FD846FF1F184CFF1FF1
:104320009841FF1F583CFF1FF83EFF1FB84EFF1F6C
:1043300002A003A003A004A07C5BFF1FBC4ABD4BEE
:10434000BD49BE48DFF880C32DE9F04F00249470CA
:10435000BB4A9C709470BB4A8C701480FF221A80F8
:10436000B34BB9491A80B84B82701A80B74B04809E
:10437000B7481A809A708C70B54EB649B14B8270AE
:104380004FF6FF709A7008803480AB4BB24E8C7041
:10439000B149B24D18804FF47F4AB270A1F800A025
:1043A000AF4EA74BDFF824B3AC7042F2FF21298057
:1043B00080251880AB4FAC4BB2703580AB4EABF85C
:1043C000001045F2FF553321DFF80483DFF804E3E2
:1043D00098701980BC70A04B8BF802403D80A44FB0
:1043E000A44D3080B270A448A44EDFF8EC921A6855
:1043F000C8F80430CEF80430CCF804307B60736029
:104400006B600480847018469D4BA9F800A046F6A6
:10441000FF1A89F80240A3F800A0DFF8C092A8F8BC
:1044200008204FF0B40A83F802A04FF6337A89F8D7
:104430000210A9F800A0110C4AF2020988F80A102B
:10444000A8F800904AF20308AEF808208EF80A1087
:10445000AEF800804AF2040EACF808208CF80A107E
:10446000ACF800E04AF2050C3A81B972A7F800C036
:104470004AF206073281B17237804AF207062E806F
:10448000744E2A81A9723768DFF854E2DFF854C20B
:10449000AEF808703B46ACF808707A4FCEF804606E
:1044A000CCF8046035467E60774EDFF83C8275605C
:1044B000764DA8F808202A81754AC8F804003B8187
:1044C0003381686013811846724B88F80A10B9B0BE
:1044D000A972604951605960010C8EF80A108CF87D
:1044E0000A10B972B172917203914AF20801A8F8E8
:1044F00000104AF21101AEF800104AF21201ACF8B5
:1045000000104AF2140139804AF2150131804AF252
:10451000010129804AF2592111804AF25A221A8057
:10452000039A9A72544A049018811268DFF8BCA169
:10453000534BDFF8BC91DFF8BC81DFF8BCE14E489B
:10454000554F564E564D19461B68AAF80820120CB6
:104550008AF80A20534ACAF804004AF2582C08463E
:104560001381C9F80410C8F80410CEF80410516083
:10457000AAF800C011464AF2901A1A0CA9F808309D
:1045800089F80A20A9F800A04AF29119A8F8083081
:1045900088F80A20A8F800904AF29218AEF808307D
:1045A0008EF80A20AEF800804AF2941C4AF2931E5C
:1045B00078603B81706033818A72BA72B272A1F8FE
:1045C00000E0A7F800C04AF295173780049F2F81BA
:1045D0004AF29616039F2E801E4E6E60AF72324DC9
:1045E000274E6E602B81AA722F46304D30486E6088
:1045F0002B81AA722F4D30496E602B81AA722F4DEC
:1046000046606E602B81AA722D4D03816E602B81F6
:10461000AA722C4D82726E604AF2971505804AF29A
:1046200098104E600B818A720880204866E000BFB7
:10463000F01FFF1F2020FF1F2C20FF1F2820FF1F1F
:104640003420FF1F2420FF1F0020FF1F0820FF1F12
:104650003020FF1F3820FF1F1020FF1FF41FFF1FF7
:104660001820FF1FF81FFF1F0420FF1F1420FF1F2B
:104670001426FF1FE425FF1F0C20FF1FCC25FF1F62
:104680001C20FF1F5020FF1F5C20FF1FC025FF1FA5
:10469000F829FF1F4C2AFF1F0022FF1FF421FF1FD4
:1046A0009025FF1F7825FF1FD420FF1FB020FF1F7C
:1046B000242BFF1F9820FF1FC820FF1FE020FF1F93
:1046C000BC20FF1FA420FF1F0826FF1FFC1FFF1F89
:1046D000D825FF1FF025FF1F3C20FF1F4020FF1F94
:1046E000D021FF1FC421FF1FFC25FF1F2827FF1F0C
:1046F0003424FF1F7C24FF1F8020FF1FDFF898C396
:10470000BD4DDFF89893DFF89883DFF898E34AF21D
:10471000991139804AF29A110180B848B84F4AF28B
:104720009B110180B7484AF29C110180B6484AF2B9
:104730009D110180B5484AF29E1103818272018069
:10474000B3480168CCF8046030467E60B14E0191F8
:10475000706001466860B048ACF808304160AF490D
:104760003B8133812B8103810B81AD4B4B60AD4B82
:104770008CF80A20BA72B272AA7282728A72A44A41
:104780005A60019A1A81120CC9F804B002929A7206
:104790004AF29F12ACF800204AF2A0123A804AF284
:1047A000A11232804AF2A2122A804AF2A312028097
:1047B0004AF2A4120A804FF229021A804FF23A03F9
:1047C000A9F80030DBF800209749984F984E994D92
:1047D0009948A9F808200B68DFF8CCC279607160AD
:1047E00069604160110C3B8133812B81038189F821
:1047F0000A101B0C4FF23B09C8F804B0A8F80820B7
:10480000CEF804B0AEF80820CCF804B0ACF808201C
:10481000BB72B372AB72837288F80A108EF80A10FA
:104820008CF80A10A8F800904FF23C08AEF800800F
:104830004FF23D0EACF800E04FF23E0CA7F800C07E
:104840004FF23F0737804FF240067C4B2E804FF2ED
:10485000410505807A4DDFF854E2DFF854C2794F04
:10486000DFF85082784EC3F804B04FF2420018804F
:104870001A8199722B6875488EF80A108CF80A1004
:10488000B972C8F8045029467560714DAEF8082019
:10489000ACF808203A814FF243091A0CCEF804B064
:1048A000CCF804B0C7F804B0A8F8083033816960C8
:1048B0002B814160038188F80A20B272AA72827249
:1048C000AEF800904FF2440EACF800E04FF2450C09
:1048D000A7F800C04FF26807A8F800704FF2690708
:1048E00037804FF26A065B492E804FF26B055A4FB4
:1048F000DFF8C4C105804FF26C004F600880386853
:10490000564ECCF804703D46554F0881ACF808006F
:1049100038813081000CDFF8A4E188727D60756019
:104920008CF80A004F4DB872B0724F484449CEF827
:104930000410696041604D49AEF808308EF80A20D5
:104940002B81AA72038182720B818A723C4B4B606D
:104950004FF26D02ACF800204FF26E023A804FF237
:104960006F0232804FF27002AEF800204FF27102F7
:104970002A804FF272023E4B02804FF273020A808D
:104980004FF24602049D1A803A49039A3A4F596001
:104990001D819A723B683948DFF824E1D0F800A005
:1049A000AEF808A03E46364FCEF804007E60354E85
:1049B0003B811B0CBB723581334B344DB27271603D
:1049C000334A344968604FEA1A4B4FF2470CA5F856
:1049D00008A04860A1F808A05060A2F808A058609C
:1049E000A3F808A085F80AB04FF220008EF80AB0AC
:1049F000A7F800C066E000BF6826FF1F9820FF1FD1
:104A00007426FF1FE020FF1FBC20FF1FA420FF1FF4
:104A10002020FF1F9826FF1F8026FF1FA426FF1FB0
:104A20001C20FF1FCC22FF1F0020FF1FD423FF1FCD
:104A3000E023FF1FEC23FF1FF823FF1F0424FF1FA9
:104A40000420FF1F0823FF1F2023FF1F3823FF1F01
:104A50002C23FF1F4423FF1F0820FF1F7423FF1F69
:104A60005C23FF1F8C23FF1F9823FF1FA423FF1F1E
:104A7000FC28FF1F3820FF1F3420FF1F2820FF1FA6
:104A8000402AFF1F0829FF1F7027FF1F4027FF1F15
:104A90006427FF1F5827FF1F8C26FF1F6823FF1F57
:104AA000B023FF1FBC23FF1FC823FF1FF022FF1FDF
:104AB000FC22FF1F1423FF1F5023FF1F8023FF1F13
:104AC0004C27FF1F4FF2480781F80AB03780088053
:104AD0004FF21E064FF221012E8082F80AB011809B
:104AE0004FF21F054FF22202DFF884C3C04FC14EC0
:104AF000C148DFF88083AEF800501A80BF4DC04A2D
:104B000083F80AB0BF4B1168CCF804307B60736047
:104B10006B604360C8F804201346BB4AA8F808102D
:104B20005360BA4B118104914FF2230EB449ACF893
:104B300008A08CF80AB0A7F808A087F80AB0A6F871
:104B400008A086F80AB0A5F808A085F80AB0A0F871
:104B500008A080F80AB059600499ACF800E04FF260
:104B6000240CA7F800C04FF2250737804FF2260625
:104B700019812E80090C4FF2270588F80A1005913B
:104B8000917205804FF22E014FF22D00DFF8E8926E
:104B9000059FA8F800001180DFF8E0829C4D9F720D
:104BA0004FF231021A802A68DFF8D4E2DFF8D4C26B
:104BB000984E0498C9F8045088F80A70964D974F9B
:104BC0008F49029BC8F80410A8F80800019994487E
:104BD000A9F80820CEF80400AEF808108EF80A30C4
:104BE000CCF80400ACF808108CF80A3078603981F1
:104BF000BB72706068608B483181B3722981AB727F
:104C0000110C894B89F80A10436003924FF22A0273
:104C10001B68A9F800204FF24909A8F800904FF24C
:104C20004C08AEF800804FF24A0EACF800E04FF2AC
:104C30004D0CA7F800C04FF24B0737804FF24E06DD
:104C40002E807A4F03814FF2520505803D68DFF8D0
:104C500038E2DFF838C2744F754A06951568CEF809
:104C600004703E46CCF80470724FDFF82482AEF830
:104C70000830ACF808303B814FF251091B0C7E60C4
:104C800083728EF80A308CF80A30BB72C8F80420A0
:104C9000A8F80850AEF800902D0C4FF2500E664E5A
:104CA000069A664888F80A50ACF800E0644D5F4BFD
:104CB00032814FF24F0CA7F800C04FF253072A8100
:104CC0000281A8F80070120C4FF254077360B272A0
:104CD00037804FF255066B604360AA72594B2E80A5
:104CE0004FF25705089282720580069A564F1A8134
:104CF0004FF25600089A18804C4858609A723B68E8
:104D0000039A434DDFF88C91DFF88C814F48DFF830
:104D10008CE13E464E4F7D603A81B9723A46394F3A
:104D2000C9F804703D46A9F808A0C8F804704760A7
:104D3000484FCEF804604FF2580CA2F800C07E60D5
:104D40004FF2620C444EA0F808A080F80AB0A9F80F
:104D500000C0180C4FF25C0C756089F80AB03F4D2A
:104D6000A7F800C03B81B8724FF259094FF25D07B6
:104D7000A8F808A088F80AB0A8F800903780334A4D
:104D8000314FA6F808A04FF25A0886F80AB0AEF8DC
:104D900008308EF80A00AEF800806F604FF25B0EAC
:104DA0002F4F2B814FF25E062E80A872A2F800E0F2
:104DB0003A682C4E134F2C4D776007923A46224F9B
:104DC000DFF8DCE0A6F808A086F80AB06F60274F8D
:104DD000DFF8D080A87215487A60CEF80400069AF1
:104DE0000F48AEF80820C8F80400089A02985BE063
:104DF0008827FF1F9427FF1F3427FF1FA027FF1FAF
:104E0000F41FFF1F2820FF1FC022FF1FAC21FF1F20
:104E10001820FF1F9028FF1F8428FF1F9C22FF1FC0
:104E20002020FF1F2C2CFF1F2420FF1FF81FFF1F17
:104E30002C20FF1FE029FF1F5428FF1F4828FF1FB9
:104E4000D828FF1F1429FF1F3020FF1FF427FF1F42
:104E50006C28FF1F0028FF1F0C28FF1F1828FF1FAA
:104E6000F01FFF1F2428FF1F3028FF1F3C28FF1FB3
:104E70007C27FF1F5C26FF1F1C21FF1FB824FF1F7C
:104E80006022FF1F7024FF1F7822FF1F5425FF1F81
:104E90001027FF1FD027FF1FDC27FF1FE827FF1F5A
:104EA0006028FF1FB42BFF1F8EF80A2088F80A0025
:104EB000079AA5482B81019BA8F808300281130CA2
:104EC0004FF25F02DFF81CC332804FF26006069398
:104ED0002E809E4BCCF804304FF26105049B3D8040
:104EE0004FF26305ACF80830AEF80050059BA7F808
:104EF00008A04FF22B0587F80AB08CF80A30944FBF
:104F0000A8F80050934B43604FF23505069BACF870
:104F100000504FF23905837205803D46079A2A8179
:104F20004EF20200069A38808A4F6F60AA728A4D4C
:104F3000019E0298894F6F602E81A872884D894A20
:104F40006F602E81A872884D90726F602E81A8725A
:104F5000864D5760A872864816816F602E81039F28
:104F600007812E46834D456081728348DFF8789231
:104F70004560078181728148DFF870E2456007462D
:104F80004EF201001080744ADFF864C27C4BDFF8F7
:104F900064A2DFF864B24EF208001080704A4EF24C
:104FA00004001080704A4AF216001080704A4AF2DB
:104FB000170030804FF22C0010806F4A4FF214001F
:104FC00010804FF21A0038806E483A46039F4560C1
:104FD0000781817206466C4817814560078181729E
:104FE0006A4891724560078181726948694A4560E3
:104FF0000781817268485560456007818172674802
:10500000178145600781817265489172456007810B
:105010004FF2080010805C4A03974FF21500308071
:105020004FF217001080594A4FF21C001080584A66
:105030004FF218001080584A4FF20C001080574A67
:105040004FF212001080564A4FF21300108055485C
:10505000917245600781817206465348534A456004
:1050600007818172524855604560078181725148BD
:1050700017814560078181724F48917245600781B1
:1050800081724E484560078181724D4845600781B5
:10509000817207464FF204001080434A4FF2160017
:1050A00030804FF207001080414A4FF20900108013
:1050B000404A4FF20A0010803F4A4FF20B00108026
:1050C0003E4A4FF20D0010803E4A4FF20E003880EB
:1050D0004FF20F0010803C48039F456007818172AA
:1050E00006463A4855604560078181723848178105
:1050F00045600781817237489172456007818172EE
:105100003548364A456007818172354855601781B8
:10511000917245600781074681724FF21D00108031
:105120002A4A4FF21B0030804FF206001080284AB6
:10513000064E4FF219001080264A4FF205001080EB
:10514000254A4FF2110059E0DC21FF1FF41FFF1F19
:10515000B425FF1FF01FFF1F6025FF1F2020FF1F2A
:10516000E824FF1F3025FF1F8824FF1F4426FF1F50
:10517000182BFF1F1820FF1F4429FF1F682CFF1F3B
:105180001837FF1F342AFF1F082CFF1F802CFF1F1A
:10519000382CFF1FE422FF1FC424FF1FC427FF1F5A
:1051A0002029FF1FA82BFF1F8422FF1F0421FF1FA0
:1051B0001C24FF1F5824FF1F9424FF1FD024FF1F0F
:1051C000DC24FF1F2026FF1F742CFF1F2422FF1F3B
:1051D0005C2CFF1FB821FF1FAC27FF1F5C30FF1F97
:1051E000F826FF1FCC2BFF1F1C2AFF1FA429FF1F1F
:1051F000D429FF1FB839FF1F583CFF1F10804FF202
:1052000010003880AB4F039A7E604FF22F00388039
:105210003846A94FB9723A81049901810746059829
:10522000B872A64FA64A7E603981B872C9F80420C8
:1052300032463E46A34F7A603981B872A24F7A60F7
:105240003981B8729C4F7D60A04D6A602A462981E1
:10525000054690729E489F4A426001819E480181A6
:105260009B49857242608D724FF23002954D3280BB
:105270004FF233022A80944D984E4FF234022A8026
:105280004FF228023A80914F4FF236023A804FF2A5
:1052900037020A804FF2380202804EF22002A9F84B
:1052A0000020079AA9F808208D49069A89F80A2053
:1052B0000A68019F1146354632688A4EAEF808707A
:1052C000080CACF80870884F04900298CEF804607F
:1052D0008EF80A00CCF804608CF80A007E60304634
:1052E000019E3E81029E0391BE72804E7560804D8C
:1052F0003281110CB1726860019A7E4878492A8126
:10530000029AAA7241600A464EF210080399AEF85A
:10531000008001814EF2800E0499ACF800E08172A9
:105320004EF2400C7449A7F800C04FF265074A607E
:105330003780039A0A814EF2E2462E80049A8A72DE
:105340004EF2B6456D4A05804EF2B54008804EF2E9
:10535000B4411180624951600F460399049E118146
:1053600067486049DFF8DC81DFF8DCE1DFF8DCC1A9
:10537000967205680A6804980399C8F8047088F85A
:105380000A00CEF804708EF80A00CCF804708CF88D
:105390000A005C4F5C48A8F80810AEF80810ACF89A
:1053A00008105049416079604EF2B341A8F80010EE
:1053B0004EF2B248AEF800804EF2CD4E4FEA12499E
:1053C000ACF800E0504902814EF2E94C80F80A90B6
:1053D0003A814E4887F80A90A7F800C04EF2EA4793
:1053E0002E0C0F80464A49494260058186724AF276
:1053F000640747480F80474942604AF265070581C4
:10540000867207804AF2660008803D4848600D8138
:105410008E724149DFF8389148600D818E720F46D7
:105420003E49DFF8308148600D818E723C49DFF8DB
:1054300028E148600D818E723A493B4A48600D81EF
:105440008E723A4948600D818E72394948600D81EB
:105450008E72384948600D818E724AF26701398038
:105460002E4F4AF2680139802D4F4AF26901398086
:105470002C4F4AF26A0139802C4F4AF26B01398075
:105480002B4F4AF26C0139802A4F4AF26D01398064
:10549000294F4AF26E013980284978603D81486081
:1054A0000D818E72BE720F46254948600D818E7245
:1054B00054E000BF0C25FF1FA822FF1F8029FF1FFB
:1054C000F01FFF1F0C2BFF1F3829FF1F1822FF1F83
:1054D0007828FF1FF41FFF1FF42AFF1F1C20FF1F47
:1054E0003820FF1F2020FF1F5029FF1F5026FF1FBD
:1054F000E026FF1FF028FF1F0427FF1F282AFF1F99
:10550000F81FFF1F502CFF1F442CFF1FD822FF1F26
:10551000F820FF1F6424FF1F6C22FF1FE428FF1FD9
:10552000E821FF1F7420FF1F7834FF1FEC20FF1FAE
:105530009C25FF1F102AFF1F142CFF1FA828FF1FE8
:105540001825FF1F1024FF1FC829FF1FCC28FF1F8D
:105550004822FF1F202CFF1F4C24FF1FAF4948602B
:105560000D818E72AE4948600D818E72AD494860E2
:105570000D818E72AC4948600D818E72AB494860D6
:105580000D818E72AA4948604AF26F013980A94F95
:105590004AF270013980A14F4AF271013980A04F5F
:1055A0004AF2C90139809F4F4AF2CA0139809E4FA1
:1055B0004AF2CB0139809D4F4AF2CC0139809C4F91
:1055C0004AF2CD0139803D81BE729B4FA9F8085047
:1055D00078603D81BE72994F89F80A600146786013
:1055E0009748C9F8041041600581867295483D814D
:1055F0004160058186729448BE7241600581867261
:1056000092484160058186729148416005818672A9
:1056100089484AF27201018089484AF2730139804F
:105620004AF27401018087488A4F4AF2750101806D
:1056300085484AF27601018084484AF27701018068
:1056400083484AF2780101804AF2CE01A9F800109D
:105650003968DFF8509288F80A600846090C019111
:105660007D49AEF808004F60019F08818F727B4929
:10567000C9F80410C8F804100146794889F80A608E
:105680008EF80A703E468772764FA9F80850A8F83F
:105690000850BE726F4D744ECEF8045045600181C3
:1056A0007D600846398175602946019DB5726F4D50
:1056B00030816960684928814AF2C80CA1F800C0AD
:1056C0004AF2CF0CA9F800C04AF2D009A8F800901D
:1056D00002904AF2D1086248AEF800804AF2D30C38
:1056E0004AF2D20EA0F800E0A7F800C04AF2D407B0
:1056F00037800199DFF8B091DFF8B081DFF8B0E1D1
:10570000DFF8B0C1A9724AF2EF062E80584D019819
:105710002D68504F89F80A0088F80A008EF80A00B0
:105720008CF80A0053480299C9F80470A9F80810C7
:10573000C8F80470A8F80810CEF80470AEF8081085
:10574000CCF80470ACF8081047603946029F078116
:10575000019F8772484F02987960059101993881BD
:10576000B972464F3B49796038810198B872444814
:105770003F4941604AF2D501A9F800104AF2F00110
:10578000A8F800104AF2D601AEF80010394F058192
:105790004AF2D701ACF800104AF2D8013980364FEE
:1057A000DFF81481DFF814E1DFF81491DFF814C199
:1057B0004AF2D9013980314F4AF2F10139804AF277
:1057C000DA012E0C01802F498672294848600D812C
:1057D0008E720F462C4948600D818E722B494860AD
:1057E0000D818E722A4948600D818E722949486068
:1057F0000D818E72284948600D818E72274948605C
:105800000D818E72264948600D818E724AF2DB014D
:1058100039801D4F4AF2DC01398055E08C29FF1F89
:105820004024FF1FA825FF1F1C27FF1F8C20FF1FE0
:10583000B428FF1F1825FF1F2C29FF1F0C22FF1F54
:105840003022FF1F0025FF1F7429FF1FD82BFF1FC9
:10585000C028FF1F1820FF1F9022FF1FF81FFF1FE7
:10586000C02BFF1F4420FF1F1021FF1F2824FF1FF4
:10587000F41FFF1FE82AFF1F9C28FF1FB827FF1FE8
:105880005C29FF1F002BFF1F6C25FF1FEC29FF1F4A
:105890008425FF1F042AFF1F3C25FF1FB029FF1F7F
:1058A0004825FF1FAC24FF1F5422FF1FB422FF1FF7
:1058B000F424FF1FEC26FF1F2C26FF1F9829FF1F33
:1058C0002425FF1FD426FF1FB24F4AF2DD01398085
:1058D000B14F4AF2DE013980B04F4AF2DF01398020
:1058E000AF4F4AF2E0013980AE4F4AF2E101398010
:1058F000AD4F4AF2E2013980AC4F4AF2E301398000
:10590000AB49786048600D818E723D81BE720F4652
:10591000A84948600D818E72A74948600D818E723A
:10592000A64948600D818E72A54948600D818E722E
:10593000A44948600D818E72A3498E7248600D8122
:105940004AF2E40139809B4F4AF2E50139809A4FCF
:105950004AF2E6013980994F4AF2E7013980984FBF
:105960004AF2E8013980974F4AF2E9013980964FAF
:105970004AF2EA013980954F4AF2EB0139809449A5
:1059800078608E7248600D813D819249BE72924F5F
:105990000D813D81914D8E7248607860BE72904855
:1059A000039F2F8129466860049D8D728D49884E22
:1059B00048600F818D728C4948600F818D728B49D0
:1059C00048600F818D728A4948604AF2EC0131804B
:1059D000814E4AF2ED0131807E4E4AF2EE01318075
:1059E0007E4E4AF2863131807E4E4AF287313180D6
:1059F0007D4E4AF2883131807C4E4AF2630131801B
:105A00007B4E4AF25B2131807A493781B572096851
:105A1000C9F804002E4688F80A608EF80A60764EAF
:105A200089F80A50C8F804000D0CCEF8040071483B
:105A3000A9F80870A8F80870AEF80870CCF804004F
:105A4000ACF808108CF80A50706031810196B5727C
:105A50006A4E074670606A483181B572018185726D
:105A60006849694D476069600F464AF28431A9F878
:105A700000104AF27F31A8F800104AF28531AEF8E2
:105A800000105D4EDFF8A491DFF8A481DFF8A4E1F7
:105A90004AF28031ACF800104AF281313180574E21
:105AA0004AF2823131804AF2833101804AF28931EF
:105AB00029803968554E2981080CA872544DC9F8BF
:105AC00004706F602981A872A9F8081089F80A008B
:105AD000C8F80470A8F8081088F80A00CEF8047016
